{
  "_format": "hh-sol-artifact-1",
  "contractName": "NFTMarketplace",
  "sourceName": "contracts/NFTMarketplace.sol",
  "abi": [
    {
      "inputs": [],
      "stateMutability": "nonpayable",
      "type": "constructor"
    },
    {
      "anonymous": false,
      "inputs": [
        {
          "indexed": true,
          "internalType": "address",
          "name": "owner",
          "type": "address"
        },
        {
          "indexed": true,
          "internalType": "address",
          "name": "approved",
          "type": "address"
        },
        {
          "indexed": true,
          "internalType": "uint256",
          "name": "tokenId",
          "type": "uint256"
        }
      ],
      "name": "Approval",
      "type": "event"
    },
    {
      "anonymous": false,
      "inputs": [
        {
          "indexed": true,
          "internalType": "address",
          "name": "owner",
          "type": "address"
        },
        {
          "indexed": true,
          "internalType": "address",
          "name": "operator",
          "type": "address"
        },
        {
          "indexed": false,
          "internalType": "bool",
          "name": "approved",
          "type": "bool"
        }
      ],
      "name": "ApprovalForAll",
      "type": "event"
    },
    {
      "anonymous": false,
      "inputs": [
        {
          "indexed": false,
          "internalType": "uint256",
          "name": "_fromTokenId",
          "type": "uint256"
        },
        {
          "indexed": false,
          "internalType": "uint256",
          "name": "_toTokenId",
          "type": "uint256"
        }
      ],
      "name": "BatchMetadataUpdate",
      "type": "event"
    },
    {
      "anonymous": false,
      "inputs": [
        {
          "indexed": false,
          "internalType": "uint256",
          "name": "_tokenId",
          "type": "uint256"
        }
      ],
      "name": "MetadataUpdate",
      "type": "event"
    },
    {
      "anonymous": false,
      "inputs": [
        {
          "indexed": true,
          "internalType": "address",
          "name": "from",
          "type": "address"
        },
        {
          "indexed": true,
          "internalType": "address",
          "name": "to",
          "type": "address"
        },
        {
          "indexed": true,
          "internalType": "uint256",
          "name": "tokenId",
          "type": "uint256"
        }
      ],
      "name": "Transfer",
      "type": "event"
    },
    {
      "anonymous": false,
      "inputs": [
        {
          "indexed": true,
          "internalType": "uint256",
          "name": "tokenId",
          "type": "uint256"
        },
        {
          "indexed": false,
          "internalType": "address payable",
          "name": "seller",
          "type": "address"
        },
        {
          "indexed": false,
          "internalType": "address payable",
          "name": "owner",
          "type": "address"
        },
        {
          "indexed": false,
          "internalType": "uint256",
          "name": "price",
          "type": "uint256"
        },
        {
          "indexed": false,
          "internalType": "bool",
          "name": "sold",
          "type": "bool"
        }
      ],
      "name": "idMarketItemCreated",
      "type": "event"
    },
    {
      "inputs": [
        {
          "internalType": "uint256",
          "name": "_listingPrice",
          "type": "uint256"
        }
      ],
      "name": "UpdateListingPrice",
      "outputs": [],
      "stateMutability": "payable",
      "type": "function"
    },
    {
      "inputs": [
        {
          "internalType": "address",
          "name": "to",
          "type": "address"
        },
        {
          "internalType": "uint256",
          "name": "tokenId",
          "type": "uint256"
        }
      ],
      "name": "approve",
      "outputs": [],
      "stateMutability": "nonpayable",
      "type": "function"
    },
    {
      "inputs": [
        {
          "internalType": "address",
          "name": "owner",
          "type": "address"
        }
      ],
      "name": "balanceOf",
      "outputs": [
        {
          "internalType": "uint256",
          "name": "",
          "type": "uint256"
        }
      ],
      "stateMutability": "view",
      "type": "function"
    },
    {
      "inputs": [
        {
          "internalType": "uint256",
          "name": "tokenId",
          "type": "uint256"
        }
      ],
      "name": "createMarketSale",
      "outputs": [],
      "stateMutability": "payable",
      "type": "function"
    },
    {
      "inputs": [
        {
          "internalType": "string",
          "name": "tokenURI",
          "type": "string"
        },
        {
          "internalType": "uint256",
          "name": "price",
          "type": "uint256"
        }
      ],
      "name": "createToken",
      "outputs": [
        {
          "internalType": "uint256",
          "name": "",
          "type": "uint256"
        }
      ],
      "stateMutability": "payable",
      "type": "function"
    },
    {
      "inputs": [],
      "name": "fetchItemsListed",
      "outputs": [
        {
          "components": [
            {
              "internalType": "uint256",
              "name": "tokenId",
              "type": "uint256"
            },
            {
              "internalType": "address payable",
              "name": "seller",
              "type": "address"
            },
            {
              "internalType": "address payable",
              "name": "owner",
              "type": "address"
            },
            {
              "internalType": "uint256",
              "name": "price",
              "type": "uint256"
            },
            {
              "internalType": "bool",
              "name": "sold",
              "type": "bool"
            }
          ],
          "internalType": "struct NFTMarketplace.MarketItem[]",
          "name": "",
          "type": "tuple[]"
        }
      ],
      "stateMutability": "view",
      "type": "function"
    },
    {
      "inputs": [],
      "name": "fetchMarketItem",
      "outputs": [
        {
          "components": [
            {
              "internalType": "uint256",
              "name": "tokenId",
              "type": "uint256"
            },
            {
              "internalType": "address payable",
              "name": "seller",
              "type": "address"
            },
            {
              "internalType": "address payable",
              "name": "owner",
              "type": "address"
            },
            {
              "internalType": "uint256",
              "name": "price",
              "type": "uint256"
            },
            {
              "internalType": "bool",
              "name": "sold",
              "type": "bool"
            }
          ],
          "internalType": "struct NFTMarketplace.MarketItem[]",
          "name": "",
          "type": "tuple[]"
        }
      ],
      "stateMutability": "view",
      "type": "function"
    },
    {
      "inputs": [],
      "name": "fetchMyNFT",
      "outputs": [
        {
          "components": [
            {
              "internalType": "uint256",
              "name": "tokenId",
              "type": "uint256"
            },
            {
              "internalType": "address payable",
              "name": "seller",
              "type": "address"
            },
            {
              "internalType": "address payable",
              "name": "owner",
              "type": "address"
            },
            {
              "internalType": "uint256",
              "name": "price",
              "type": "uint256"
            },
            {
              "internalType": "bool",
              "name": "sold",
              "type": "bool"
            }
          ],
          "internalType": "struct NFTMarketplace.MarketItem[]",
          "name": "",
          "type": "tuple[]"
        }
      ],
      "stateMutability": "view",
      "type": "function"
    },
    {
      "inputs": [
        {
          "internalType": "uint256",
          "name": "tokenId",
          "type": "uint256"
        }
      ],
      "name": "getApproved",
      "outputs": [
        {
          "internalType": "address",
          "name": "",
          "type": "address"
        }
      ],
      "stateMutability": "view",
      "type": "function"
    },
    {
      "inputs": [],
      "name": "getListingPrice",
      "outputs": [
        {
          "internalType": "uint256",
          "name": "",
          "type": "uint256"
        }
      ],
      "stateMutability": "view",
      "type": "function"
    },
    {
      "inputs": [
        {
          "internalType": "address",
          "name": "owner",
          "type": "address"
        },
        {
          "internalType": "address",
          "name": "operator",
          "type": "address"
        }
      ],
      "name": "isApprovedForAll",
      "outputs": [
        {
          "internalType": "bool",
          "name": "",
          "type": "bool"
        }
      ],
      "stateMutability": "view",
      "type": "function"
    },
    {
      "inputs": [],
      "name": "name",
      "outputs": [
        {
          "internalType": "string",
          "name": "",
          "type": "string"
        }
      ],
      "stateMutability": "view",
      "type": "function"
    },
    {
      "inputs": [
        {
          "internalType": "uint256",
          "name": "tokenId",
          "type": "uint256"
        }
      ],
      "name": "ownerOf",
      "outputs": [
        {
          "internalType": "address",
          "name": "",
          "type": "address"
        }
      ],
      "stateMutability": "view",
      "type": "function"
    },
    {
      "inputs": [
        {
          "internalType": "uint256",
          "name": "tokenId",
          "type": "uint256"
        },
        {
          "internalType": "uint256",
          "name": "price",
          "type": "uint256"
        }
      ],
      "name": "reSellToken",
      "outputs": [],
      "stateMutability": "payable",
      "type": "function"
    },
    {
      "inputs": [
        {
          "internalType": "address",
          "name": "from",
          "type": "address"
        },
        {
          "internalType": "address",
          "name": "to",
          "type": "address"
        },
        {
          "internalType": "uint256",
          "name": "tokenId",
          "type": "uint256"
        }
      ],
      "name": "safeTransferFrom",
      "outputs": [],
      "stateMutability": "nonpayable",
      "type": "function"
    },
    {
      "inputs": [
        {
          "internalType": "address",
          "name": "from",
          "type": "address"
        },
        {
          "internalType": "address",
          "name": "to",
          "type": "address"
        },
        {
          "internalType": "uint256",
          "name": "tokenId",
          "type": "uint256"
        },
        {
          "internalType": "bytes",
          "name": "data",
          "type": "bytes"
        }
      ],
      "name": "safeTransferFrom",
      "outputs": [],
      "stateMutability": "nonpayable",
      "type": "function"
    },
    {
      "inputs": [
        {
          "internalType": "address",
          "name": "operator",
          "type": "address"
        },
        {
          "internalType": "bool",
          "name": "approved",
          "type": "bool"
        }
      ],
      "name": "setApprovalForAll",
      "outputs": [],
      "stateMutability": "nonpayable",
      "type": "function"
    },
    {
      "inputs": [
        {
          "internalType": "bytes4",
          "name": "interfaceId",
          "type": "bytes4"
        }
      ],
      "name": "supportsInterface",
      "outputs": [
        {
          "internalType": "bool",
          "name": "",
          "type": "bool"
        }
      ],
      "stateMutability": "view",
      "type": "function"
    },
    {
      "inputs": [],
      "name": "symbol",
      "outputs": [
        {
          "internalType": "string",
          "name": "",
          "type": "string"
        }
      ],
      "stateMutability": "view",
      "type": "function"
    },
    {
      "inputs": [
        {
          "internalType": "uint256",
          "name": "tokenId",
          "type": "uint256"
        }
      ],
      "name": "tokenURI",
      "outputs": [
        {
          "internalType": "string",
          "name": "",
          "type": "string"
        }
      ],
      "stateMutability": "view",
      "type": "function"
    },
    {
      "inputs": [
        {
          "internalType": "address",
          "name": "from",
          "type": "address"
        },
        {
          "internalType": "address",
          "name": "to",
          "type": "address"
        },
        {
          "internalType": "uint256",
          "name": "tokenId",
          "type": "uint256"
        }
      ],
      "name": "transferFrom",
      "outputs": [],
      "stateMutability": "nonpayable",
      "type": "function"
    }
  ],
  "bytecode": "0x60806040526605543df729c0006009553480156200001c57600080fd5b506040518060400160405280601381526020017f4e4654204d657461766572736520546f6b656e000000000000000000000000008152506040518060400160405280600581526020017f4d594e465400000000000000000000000000000000000000000000000000000081525081600090816200009a919062000355565b508060019081620000ac919062000355565b5050503373ffffffffffffffffffffffffffffffffffffffff16600a60009054906101000a905050506200043c565b600081519050919050565b7f4e487b7100000000000000000000000000000000000000000000000000000000600052604160045260246000fd5b7f4e487b7100000000000000000000000000000000000000000000000000000000600052602260045260246000fd5b600060028204905060018216806200015d57607f821691505b60208210810362000173576200017262000115565b5b50919050565b60008190508160005260206000209050919050565b60006020601f8301049050919050565b600082821b905092915050565b600060088302620001dd7fffffffffffffffffffffffffffffffffffffffffffffffffffffffffffffffff826200019e565b620001e986836200019e565b95508019841693508086168417925050509392505050565b6000819050919050565b6000819050919050565b600062000236620002306200022a8462000201565b6200020b565b62000201565b9050919050565b6000819050919050565b620002528362000215565b6200026a62000261826200023d565b848454620001ab565b825550505050565b600090565b6200028162000272565b6200028e81848462000247565b505050565b5b81811015620002b657620002aa60008262000277565b60018101905062000294565b5050565b601f8211156200030557620002cf8162000179565b620002da846200018e565b81016020851015620002ea578190505b62000302620002f9856200018e565b83018262000293565b50505b505050565b600082821c905092915050565b60006200032a600019846008026200030a565b1980831691505092915050565b600062000345838362000317565b9150826002028217905092915050565b6200036082620000db565b67ffffffffffffffff8111156200037c576200037b620000e6565b5b62000388825462000144565b62000395828285620002ba565b600060209050601f831160018114620003cd5760008415620003b8578287015190505b620003c4858262000337565b86555062000434565b601f198416620003dd8662000179565b60005b828110156200040757848901518255600182019150602085019450602081019050620003e0565b8683101562000427578489015162000423601f89168262000317565b8355505b6001600288020188555050505b505050505050565b614208806200044c6000396000f3fe60806040526004361061012a5760003560e01c806372b3b620116100ab578063b88d4fde1161006f578063b88d4fde146103ea578063be9af53614610413578063c18763f71461042f578063c87b56dd1461045a578063d64a008a14610497578063e985e9c5146104b35761012a565b806372b3b6201461031f57806385535b251461034f5780638fafd0211461036b57806395d89b4114610396578063a22cb465146103c15761012a565b806323b872dd116100f257806323b872dd1461022857806342842e0e1461025157806345f8fa801461027a5780636352211e146102a557806370a08231146102e25761012a565b806301ffc9a71461012f57806306fdde031461016c578063081812fc14610197578063095ea7b3146101d457806312e85585146101fd575b600080fd5b34801561013b57600080fd5b5061015660048036038101906101519190612b29565b6104f0565b6040516101639190612b71565b60405180910390f35b34801561017857600080fd5b50610181610551565b60405161018e9190612c1c565b60405180910390f35b3480156101a357600080fd5b506101be60048036038101906101b99190612c74565b6105e3565b6040516101cb9190612ce2565b60405180910390f35b3480156101e057600080fd5b506101fb60048036038101906101f69190612d29565b610629565b005b34801561020957600080fd5b50610212610740565b60405161021f9190612d78565b60405180910390f35b34801561023457600080fd5b5061024f600480360381019061024a9190612d93565b61074a565b005b34801561025d57600080fd5b5061027860048036038101906102739190612d93565b6107aa565b005b34801561028657600080fd5b5061028f6107ca565b60405161029c9190612f3c565b60405180910390f35b3480156102b157600080fd5b506102cc60048036038101906102c79190612c74565b610ab6565b6040516102d99190612ce2565b60405180910390f35b3480156102ee57600080fd5b5061030960048036038101906103049190612f5e565b610b3c565b6040516103169190612d78565b60405180910390f35b610339600480360381019061033491906130c0565b610bf3565b6040516103469190612d78565b60405180910390f35b6103696004803603810190610364919061311c565b610c35565b005b34801561037757600080fd5b50610380610e20565b60405161038d9190612f3c565b60405180910390f35b3480156103a257600080fd5b506103ab611088565b6040516103b89190612c1c565b60405180910390f35b3480156103cd57600080fd5b506103e860048036038101906103e39190613188565b61111a565b005b3480156103f657600080fd5b50610411600480360381019061040c9190613269565b611130565b005b61042d60048036038101906104289190612c74565b611192565b005b34801561043b57600080fd5b506104446113ca565b6040516104519190612f3c565b60405180910390f35b34801561046657600080fd5b50610481600480360381019061047c9190612c74565b6116b6565b60405161048e9190612c1c565b60405180910390f35b6104b160048036038101906104ac9190612c74565b6117c8565b005b3480156104bf57600080fd5b506104da60048036038101906104d591906132ec565b611862565b6040516104e79190612b71565b60405180910390f35b6000634906490660e01b7bffffffffffffffffffffffffffffffffffffffffffffffffffffffff1916827bffffffffffffffffffffffffffffffffffffffffffffffffffffffff1916148061054a5750610549826118f6565b5b9050919050565b6060600080546105609061335b565b80601f016020809104026020016040519081016040528092919081815260200182805461058c9061335b565b80156105d95780601f106105ae576101008083540402835291602001916105d9565b820191906000526020600020905b8154815290600101906020018083116105bc57829003601f168201915b5050505050905090565b60006105ee826119d8565b6004600083815260200190815260200160002060009054906101000a900473ffffffffffffffffffffffffffffffffffffffff169050919050565b600061063482610ab6565b90508073ffffffffffffffffffffffffffffffffffffffff168373ffffffffffffffffffffffffffffffffffffffff16036106a4576040517f08c379a000000000000000000000000000000000000000000000000000000000815260040161069b906133fe565b60405180910390fd5b8073ffffffffffffffffffffffffffffffffffffffff166106c3611a23565b73ffffffffffffffffffffffffffffffffffffffff1614806106f257506106f1816106ec611a23565b611862565b5b610731576040517f08c379a000000000000000000000000000000000000000000000000000000000815260040161072890613490565b60405180910390fd5b61073b8383611a2b565b505050565b6000600954905090565b61075b610755611a23565b82611ae4565b61079a576040517f08c379a000000000000000000000000000000000000000000000000000000000815260040161079190613522565b60405180910390fd5b6107a5838383611b79565b505050565b6107c583838360405180602001604052806000815250611130565b505050565b606060006107d86007611e72565b905060008060005b83811015610880573373ffffffffffffffffffffffffffffffffffffffff16600b60006001846108109190613571565b815260200190815260200160002060010160009054906101000a900473ffffffffffffffffffffffffffffffffffffffff1673ffffffffffffffffffffffffffffffffffffffff160361086d5760018361086a9190613571565b92505b8080610878906135a5565b9150506107e0565b5060008267ffffffffffffffff81111561089d5761089c612f95565b5b6040519080825280602002602001820160405280156108d657816020015b6108c3612a60565b8152602001906001900390816108bb5790505b50905060005b84811015610aab573373ffffffffffffffffffffffffffffffffffffffff16600b600060018461090c9190613571565b815260200190815260200160002060010160009054906101000a900473ffffffffffffffffffffffffffffffffffffffff1673ffffffffffffffffffffffffffffffffffffffff1603610a985760006001826109689190613571565b90506000600b60008381526020019081526020016000209050806040518060a0016040529081600082015481526020016001820160009054906101000a900473ffffffffffffffffffffffffffffffffffffffff1673ffffffffffffffffffffffffffffffffffffffff1673ffffffffffffffffffffffffffffffffffffffff1681526020016002820160009054906101000a900473ffffffffffffffffffffffffffffffffffffffff1673ffffffffffffffffffffffffffffffffffffffff1673ffffffffffffffffffffffffffffffffffffffff168152602001600382015481526020016004820160009054906101000a900460ff161515151581525050848681518110610a7b57610a7a6135ed565b5b6020026020010181905250600185610a939190613571565b945050505b8080610aa3906135a5565b9150506108dc565b508094505050505090565b600080610ac283611e80565b9050600073ffffffffffffffffffffffffffffffffffffffff168173ffffffffffffffffffffffffffffffffffffffff1603610b33576040517f08c379a0000000000000000000000000000000000000000000000000000000008152600401610b2a90613668565b60405180910390fd5b80915050919050565b60008073ffffffffffffffffffffffffffffffffffffffff168273ffffffffffffffffffffffffffffffffffffffff1603610bac576040517f08c379a0000000000000000000000000000000000000000000000000000000008152600401610ba3906136fa565b60405180910390fd5b600360008373ffffffffffffffffffffffffffffffffffffffff1673ffffffffffffffffffffffffffffffffffffffff168152602001908152602001600020549050919050565b6000610bff6007611ebd565b6000610c0b6007611e72565b9050610c173382611ed3565b610c2181856120f0565b610c2b8184612194565b8091505092915050565b3373ffffffffffffffffffffffffffffffffffffffff16600b600084815260200190815260200160002060020160009054906101000a900473ffffffffffffffffffffffffffffffffffffffff1673ffffffffffffffffffffffffffffffffffffffff1614610cd9576040517f08c379a0000000000000000000000000000000000000000000000000000000008152600401610cd09061378c565b60405180910390fd5b6009543414610d1d576040517f08c379a0000000000000000000000000000000000000000000000000000000008152600401610d149061381e565b60405180910390fd5b6000600b600084815260200190815260200160002060040160006101000a81548160ff02191690831515021790555080600b60008481526020019081526020016000206003018190555033600b600084815260200190815260200160002060010160006101000a81548173ffffffffffffffffffffffffffffffffffffffff021916908373ffffffffffffffffffffffffffffffffffffffff16021790555030600b600084815260200190815260200160002060020160006101000a81548173ffffffffffffffffffffffffffffffffffffffff021916908373ffffffffffffffffffffffffffffffffffffffff160217905550610e1c333084611b79565b5050565b60606000610e2e6007611e72565b90506000610e3c6008611e72565b610e466007611e72565b610e50919061383e565b90506000808267ffffffffffffffff811115610e6f57610e6e612f95565b5b604051908082528060200260200182016040528015610ea857816020015b610e95612a60565b815260200190600190039081610e8d5790505b50905060005b8481101561107d573073ffffffffffffffffffffffffffffffffffffffff16600b6000600184610ede9190613571565b815260200190815260200160002060020160009054906101000a900473ffffffffffffffffffffffffffffffffffffffff1673ffffffffffffffffffffffffffffffffffffffff160361106a576000600182610f3a9190613571565b90506000600b60008381526020019081526020016000209050806040518060a0016040529081600082015481526020016001820160009054906101000a900473ffffffffffffffffffffffffffffffffffffffff1673ffffffffffffffffffffffffffffffffffffffff1673ffffffffffffffffffffffffffffffffffffffff1681526020016002820160009054906101000a900473ffffffffffffffffffffffffffffffffffffffff1673ffffffffffffffffffffffffffffffffffffffff1673ffffffffffffffffffffffffffffffffffffffff168152602001600382015481526020016004820160009054906101000a900460ff16151515158152505084868151811061104d5761104c6135ed565b5b60200260200101819052506001856110659190613571565b945050505b8080611075906135a5565b915050610eae565b508094505050505090565b6060600180546110979061335b565b80601f01602080910402602001604051908101604052809291908181526020018280546110c39061335b565b80156111105780601f106110e557610100808354040283529160200191611110565b820191906000526020600020905b8154815290600101906020018083116110f357829003601f168201915b5050505050905090565b61112c611125611a23565b8383612397565b5050565b61114161113b611a23565b83611ae4565b611180576040517f08c379a000000000000000000000000000000000000000000000000000000000815260040161117790613522565b60405180910390fd5b61118c84848484612503565b50505050565b6000600b60008381526020019081526020016000206003015490508034146111ef576040517f08c379a00000000000000000000000000000000000000000000000000000000081526004016111e6906138e4565b60405180910390fd5b33600b600084815260200190815260200160002060020160006101000a81548173ffffffffffffffffffffffffffffffffffffffff021916908373ffffffffffffffffffffffffffffffffffffffff1602179055506001600b600084815260200190815260200160002060040160006101000a81548160ff0219169083151502179055506000600b600084815260200190815260200160002060020160006101000a81548173ffffffffffffffffffffffffffffffffffffffff021916908373ffffffffffffffffffffffffffffffffffffffff1602179055506112d36008611ebd565b6112de303384611b79565b600a60009054906101000a900473ffffffffffffffffffffffffffffffffffffffff1673ffffffffffffffffffffffffffffffffffffffff166108fc6009549081150290604051600060405180830381858888f19350505050158015611348573d6000803e3d6000fd5b50600b600083815260200190815260200160002060010160009054906101000a900473ffffffffffffffffffffffffffffffffffffffff1673ffffffffffffffffffffffffffffffffffffffff166108fc349081150290604051600060405180830381858888f193505050501580156113c5573d6000803e3d6000fd5b505050565b606060006113d86007611e72565b905060008060005b83811015611480573373ffffffffffffffffffffffffffffffffffffffff16600b60006001846114109190613571565b815260200190815260200160002060020160009054906101000a900473ffffffffffffffffffffffffffffffffffffffff1673ffffffffffffffffffffffffffffffffffffffff160361146d5760018361146a9190613571565b92505b8080611478906135a5565b9150506113e0565b5060008267ffffffffffffffff81111561149d5761149c612f95565b5b6040519080825280602002602001820160405280156114d657816020015b6114c3612a60565b8152602001906001900390816114bb5790505b50905060005b848110156116ab573373ffffffffffffffffffffffffffffffffffffffff16600b600060018461150c9190613571565b815260200190815260200160002060020160009054906101000a900473ffffffffffffffffffffffffffffffffffffffff1673ffffffffffffffffffffffffffffffffffffffff16036116985760006001826115689190613571565b90506000600b60008381526020019081526020016000209050806040518060a0016040529081600082015481526020016001820160009054906101000a900473ffffffffffffffffffffffffffffffffffffffff1673ffffffffffffffffffffffffffffffffffffffff1673ffffffffffffffffffffffffffffffffffffffff1681526020016002820160009054906101000a900473ffffffffffffffffffffffffffffffffffffffff1673ffffffffffffffffffffffffffffffffffffffff1673ffffffffffffffffffffffffffffffffffffffff168152602001600382015481526020016004820160009054906101000a900460ff16151515158152505084868151811061167b5761167a6135ed565b5b60200260200101819052506001856116939190613571565b945050505b80806116a3906135a5565b9150506114dc565b508094505050505090565b60606116c1826119d8565b60006006600084815260200190815260200160002080546116e19061335b565b80601f016020809104026020016040519081016040528092919081815260200182805461170d9061335b565b801561175a5780601f1061172f5761010080835404028352916020019161175a565b820191906000526020600020905b81548152906001019060200180831161173d57829003601f168201915b50505050509050600061176b61255f565b905060008151036117805781925050506117c3565b6000825111156117b557808260405160200161179d929190613940565b604051602081830303815290604052925050506117c3565b6117be84612576565b925050505b919050565b600a60009054906101000a900473ffffffffffffffffffffffffffffffffffffffff1673ffffffffffffffffffffffffffffffffffffffff163373ffffffffffffffffffffffffffffffffffffffff1614611858576040517f08c379a000000000000000000000000000000000000000000000000000000000815260040161184f906139d6565b60405180910390fd5b8060098190555050565b6000600560008473ffffffffffffffffffffffffffffffffffffffff1673ffffffffffffffffffffffffffffffffffffffff16815260200190815260200160002060008373ffffffffffffffffffffffffffffffffffffffff1673ffffffffffffffffffffffffffffffffffffffff16815260200190815260200160002060009054906101000a900460ff16905092915050565b60007f80ac58cd000000000000000000000000000000000000000000000000000000007bffffffffffffffffffffffffffffffffffffffffffffffffffffffff1916827bffffffffffffffffffffffffffffffffffffffffffffffffffffffff191614806119c157507f5b5e139f000000000000000000000000000000000000000000000000000000007bffffffffffffffffffffffffffffffffffffffffffffffffffffffff1916827bffffffffffffffffffffffffffffffffffffffffffffffffffffffff1916145b806119d157506119d0826125de565b5b9050919050565b6119e181612648565b611a20576040517f08c379a0000000000000000000000000000000000000000000000000000000008152600401611a1790613668565b60405180910390fd5b50565b600033905090565b816004600083815260200190815260200160002060006101000a81548173ffffffffffffffffffffffffffffffffffffffff021916908373ffffffffffffffffffffffffffffffffffffffff160217905550808273ffffffffffffffffffffffffffffffffffffffff16611a9e83610ab6565b73ffffffffffffffffffffffffffffffffffffffff167f8c5be1e5ebec7d5bd14f71427d1e84f3dd0314c0f7b2291e5b200ac8c7c3b92560405160405180910390a45050565b600080611af083610ab6565b90508073ffffffffffffffffffffffffffffffffffffffff168473ffffffffffffffffffffffffffffffffffffffff161480611b325750611b318185611862565b5b80611b7057508373ffffffffffffffffffffffffffffffffffffffff16611b58846105e3565b73ffffffffffffffffffffffffffffffffffffffff16145b91505092915050565b8273ffffffffffffffffffffffffffffffffffffffff16611b9982610ab6565b73ffffffffffffffffffffffffffffffffffffffff1614611bef576040517f08c379a0000000000000000000000000000000000000000000000000000000008152600401611be690613a68565b60405180910390fd5b600073ffffffffffffffffffffffffffffffffffffffff168273ffffffffffffffffffffffffffffffffffffffff1603611c5e576040517f08c379a0000000000000000000000000000000000000000000000000000000008152600401611c5590613afa565b60405180910390fd5b611c6b8383836001612689565b8273ffffffffffffffffffffffffffffffffffffffff16611c8b82610ab6565b73ffffffffffffffffffffffffffffffffffffffff1614611ce1576040517f08c379a0000000000000000000000000000000000000000000000000000000008152600401611cd890613a68565b60405180910390fd5b6004600082815260200190815260200160002060006101000a81549073ffffffffffffffffffffffffffffffffffffffff02191690556001600360008573ffffffffffffffffffffffffffffffffffffffff1673ffffffffffffffffffffffffffffffffffffffff168152602001908152602001600020600082825403925050819055506001600360008473ffffffffffffffffffffffffffffffffffffffff1673ffffffffffffffffffffffffffffffffffffffff16815260200190815260200160002060008282540192505081905550816002600083815260200190815260200160002060006101000a81548173ffffffffffffffffffffffffffffffffffffffff021916908373ffffffffffffffffffffffffffffffffffffffff160217905550808273ffffffffffffffffffffffffffffffffffffffff168473ffffffffffffffffffffffffffffffffffffffff167fddf252ad1be2c89b69c2b068fc378daa952ba7f163c4a11628f55a4df523b3ef60405160405180910390a4611e6d838383600161268f565b505050565b600081600001549050919050565b60006002600083815260200190815260200160002060009054906101000a900473ffffffffffffffffffffffffffffffffffffffff169050919050565b6001816000016000828254019250508190555050565b600073ffffffffffffffffffffffffffffffffffffffff168273ffffffffffffffffffffffffffffffffffffffff1603611f42576040517f08c379a0000000000000000000000000000000000000000000000000000000008152600401611f3990613b66565b60405180910390fd5b611f4b81612648565b15611f8b576040517f08c379a0000000000000000000000000000000000000000000000000000000008152600401611f8290613bd2565b60405180910390fd5b611f99600083836001612689565b611fa281612648565b15611fe2576040517f08c379a0000000000000000000000000000000000000000000000000000000008152600401611fd990613bd2565b60405180910390fd5b6001600360008473ffffffffffffffffffffffffffffffffffffffff1673ffffffffffffffffffffffffffffffffffffffff16815260200190815260200160002060008282540192505081905550816002600083815260200190815260200160002060006101000a81548173ffffffffffffffffffffffffffffffffffffffff021916908373ffffffffffffffffffffffffffffffffffffffff160217905550808273ffffffffffffffffffffffffffffffffffffffff16600073ffffffffffffffffffffffffffffffffffffffff167fddf252ad1be2c89b69c2b068fc378daa952ba7f163c4a11628f55a4df523b3ef60405160405180910390a46120ec60008383600161268f565b5050565b6120f982612648565b612138576040517f08c379a000000000000000000000000000000000000000000000000000000000815260040161212f90613c64565b60405180910390fd5b806006600084815260200190815260200160002090816121589190613e30565b507ff8e1a15aba9398e019f0b49df1a4fde98ee17ae345cb5f6b5e2c27f5033e8ce7826040516121889190612d78565b60405180910390a15050565b600081116121d7576040517f08c379a00000000000000000000000000000000000000000000000000000000081526004016121ce90613f4e565b60405180910390fd5b600954341461221b576040517f08c379a00000000000000000000000000000000000000000000000000000000081526004016122129061381e565b60405180910390fd5b6040518060a001604052808381526020013373ffffffffffffffffffffffffffffffffffffffff1681526020013073ffffffffffffffffffffffffffffffffffffffff16815260200182815260200160001515815250600b60008481526020019081526020016000206000820151816000015560208201518160010160006101000a81548173ffffffffffffffffffffffffffffffffffffffff021916908373ffffffffffffffffffffffffffffffffffffffff16021790555060408201518160020160006101000a81548173ffffffffffffffffffffffffffffffffffffffff021916908373ffffffffffffffffffffffffffffffffffffffff1602179055506060820151816003015560808201518160040160006101000a81548160ff021916908315150217905550905050612354333084611b79565b817fdebdb32cb5230ab727c9c361b16fdb2015df225c10e6a3e7f60ecd5dc5be4516333084600060405161238b9493929190613f7d565b60405180910390a25050565b8173ffffffffffffffffffffffffffffffffffffffff168373ffffffffffffffffffffffffffffffffffffffff1603612405576040517f08c379a00000000000000000000000000000000000000000000000000000000081526004016123fc9061400e565b60405180910390fd5b80600560008573ffffffffffffffffffffffffffffffffffffffff1673ffffffffffffffffffffffffffffffffffffffff16815260200190815260200160002060008473ffffffffffffffffffffffffffffffffffffffff1673ffffffffffffffffffffffffffffffffffffffff16815260200190815260200160002060006101000a81548160ff0219169083151502179055508173ffffffffffffffffffffffffffffffffffffffff168373ffffffffffffffffffffffffffffffffffffffff167f17307eab39ab6107e8899845ad3d59bd9653f200f220920489ca2b5937696c31836040516124f69190612b71565b60405180910390a3505050565b61250e848484611b79565b61251a84848484612695565b612559576040517f08c379a0000000000000000000000000000000000000000000000000000000008152600401612550906140a0565b60405180910390fd5b50505050565b606060405180602001604052806000815250905090565b6060612581826119d8565b600061258b61255f565b905060008151116125ab57604051806020016040528060008152506125d6565b806125b58461281c565b6040516020016125c6929190613940565b6040516020818303038152906040525b915050919050565b60007f01ffc9a7000000000000000000000000000000000000000000000000000000007bffffffffffffffffffffffffffffffffffffffffffffffffffffffff1916827bffffffffffffffffffffffffffffffffffffffffffffffffffffffff1916149050919050565b60008073ffffffffffffffffffffffffffffffffffffffff1661266a83611e80565b73ffffffffffffffffffffffffffffffffffffffff1614159050919050565b50505050565b50505050565b60006126b68473ffffffffffffffffffffffffffffffffffffffff166128ea565b1561280f578373ffffffffffffffffffffffffffffffffffffffff1663150b7a026126df611a23565b8786866040518563ffffffff1660e01b81526004016127019493929190614115565b6020604051808303816000875af192505050801561273d57506040513d601f19601f8201168201806040525081019061273a9190614176565b60015b6127bf573d806000811461276d576040519150601f19603f3d011682016040523d82523d6000602084013e612772565b606091505b5060008151036127b7576040517f08c379a00000000000000000000000000000000000000000000000000000000081526004016127ae906140a0565b60405180910390fd5b805181602001fd5b63150b7a0260e01b7bffffffffffffffffffffffffffffffffffffffffffffffffffffffff1916817bffffffffffffffffffffffffffffffffffffffffffffffffffffffff191614915050612814565b600190505b949350505050565b60606000600161282b8461290d565b01905060008167ffffffffffffffff81111561284a57612849612f95565b5b6040519080825280601f01601f19166020018201604052801561287c5781602001600182028036833780820191505090505b509050600082602001820190505b6001156128df578080600190039150507f3031323334353637383961626364656600000000000000000000000000000000600a86061a8153600a85816128d3576128d26141a3565b5b0494506000850361288a575b819350505050919050565b6000808273ffffffffffffffffffffffffffffffffffffffff163b119050919050565b600080600090507a184f03e93ff9f4daa797ed6e38ed64bf6a1f010000000000000000831061296b577a184f03e93ff9f4daa797ed6e38ed64bf6a1f0100000000000000008381612961576129606141a3565b5b0492506040810190505b6d04ee2d6d415b85acef810000000083106129a8576d04ee2d6d415b85acef8100000000838161299e5761299d6141a3565b5b0492506020810190505b662386f26fc1000083106129d757662386f26fc1000083816129cd576129cc6141a3565b5b0492506010810190505b6305f5e1008310612a00576305f5e10083816129f6576129f56141a3565b5b0492506008810190505b6127108310612a25576127108381612a1b57612a1a6141a3565b5b0492506004810190505b60648310612a485760648381612a3e57612a3d6141a3565b5b0492506002810190505b600a8310612a57576001810190505b80915050919050565b6040518060a0016040528060008152602001600073ffffffffffffffffffffffffffffffffffffffff168152602001600073ffffffffffffffffffffffffffffffffffffffff168152602001600081526020016000151581525090565b6000604051905090565b600080fd5b600080fd5b60007fffffffff0000000000000000000000000000000000000000000000000000000082169050919050565b612b0681612ad1565b8114612b1157600080fd5b50565b600081359050612b2381612afd565b92915050565b600060208284031215612b3f57612b3e612ac7565b5b6000612b4d84828501612b14565b91505092915050565b60008115159050919050565b612b6b81612b56565b82525050565b6000602082019050612b866000830184612b62565b92915050565b600081519050919050565b600082825260208201905092915050565b60005b83811015612bc6578082015181840152602081019050612bab565b60008484015250505050565b6000601f19601f8301169050919050565b6000612bee82612b8c565b612bf88185612b97565b9350612c08818560208601612ba8565b612c1181612bd2565b840191505092915050565b60006020820190508181036000830152612c368184612be3565b905092915050565b6000819050919050565b612c5181612c3e565b8114612c5c57600080fd5b50565b600081359050612c6e81612c48565b92915050565b600060208284031215612c8a57612c89612ac7565b5b6000612c9884828501612c5f565b91505092915050565b600073ffffffffffffffffffffffffffffffffffffffff82169050919050565b6000612ccc82612ca1565b9050919050565b612cdc81612cc1565b82525050565b6000602082019050612cf76000830184612cd3565b92915050565b612d0681612cc1565b8114612d1157600080fd5b50565b600081359050612d2381612cfd565b92915050565b60008060408385031215612d4057612d3f612ac7565b5b6000612d4e85828601612d14565b9250506020612d5f85828601612c5f565b9150509250929050565b612d7281612c3e565b82525050565b6000602082019050612d8d6000830184612d69565b92915050565b600080600060608486031215612dac57612dab612ac7565b5b6000612dba86828701612d14565b9350506020612dcb86828701612d14565b9250506040612ddc86828701612c5f565b9150509250925092565b600081519050919050565b600082825260208201905092915050565b6000819050602082019050919050565b612e1b81612c3e565b82525050565b6000612e2c82612ca1565b9050919050565b612e3c81612e21565b82525050565b612e4b81612b56565b82525050565b60a082016000820151612e676000850182612e12565b506020820151612e7a6020850182612e33565b506040820151612e8d6040850182612e33565b506060820151612ea06060850182612e12565b506080820151612eb36080850182612e42565b50505050565b6000612ec58383612e51565b60a08301905092915050565b6000602082019050919050565b6000612ee982612de6565b612ef38185612df1565b9350612efe83612e02565b8060005b83811015612f2f578151612f168882612eb9565b9750612f2183612ed1565b925050600181019050612f02565b5085935050505092915050565b60006020820190508181036000830152612f568184612ede565b905092915050565b600060208284031215612f7457612f73612ac7565b5b6000612f8284828501612d14565b91505092915050565b600080fd5b600080fd5b7f4e487b7100000000000000000000000000000000000000000000000000000000600052604160045260246000fd5b612fcd82612bd2565b810181811067ffffffffffffffff82111715612fec57612feb612f95565b5b80604052505050565b6000612fff612abd565b905061300b8282612fc4565b919050565b600067ffffffffffffffff82111561302b5761302a612f95565b5b61303482612bd2565b9050602081019050919050565b82818337600083830152505050565b600061306361305e84613010565b612ff5565b90508281526020810184848401111561307f5761307e612f90565b5b61308a848285613041565b509392505050565b600082601f8301126130a7576130a6612f8b565b5b81356130b7848260208601613050565b91505092915050565b600080604083850312156130d7576130d6612ac7565b5b600083013567ffffffffffffffff8111156130f5576130f4612acc565b5b61310185828601613092565b925050602061311285828601612c5f565b9150509250929050565b6000806040838503121561313357613132612ac7565b5b600061314185828601612c5f565b925050602061315285828601612c5f565b9150509250929050565b61316581612b56565b811461317057600080fd5b50565b6000813590506131828161315c565b92915050565b6000806040838503121561319f5761319e612ac7565b5b60006131ad85828601612d14565b92505060206131be85828601613173565b9150509250929050565b600067ffffffffffffffff8211156131e3576131e2612f95565b5b6131ec82612bd2565b9050602081019050919050565b600061320c613207846131c8565b612ff5565b90508281526020810184848401111561322857613227612f90565b5b613233848285613041565b509392505050565b600082601f8301126132505761324f612f8b565b5b81356132608482602086016131f9565b91505092915050565b6000806000806080858703121561328357613282612ac7565b5b600061329187828801612d14565b94505060206132a287828801612d14565b93505060406132b387828801612c5f565b925050606085013567ffffffffffffffff8111156132d4576132d3612acc565b5b6132e08782880161323b565b91505092959194509250565b6000806040838503121561330357613302612ac7565b5b600061331185828601612d14565b925050602061332285828601612d14565b9150509250929050565b7f4e487b7100000000000000000000000000000000000000000000000000000000600052602260045260246000fd5b6000600282049050600182168061337357607f821691505b6020821081036133865761338561332c565b5b50919050565b7f4552433732313a20617070726f76616c20746f2063757272656e74206f776e6560008201527f7200000000000000000000000000000000000000000000000000000000000000602082015250565b60006133e8602183612b97565b91506133f38261338c565b604082019050919050565b60006020820190508181036000830152613417816133db565b9050919050565b7f4552433732313a20617070726f76652063616c6c6572206973206e6f7420746f60008201527f6b656e206f776e6572206f7220617070726f76656420666f7220616c6c000000602082015250565b600061347a603d83612b97565b91506134858261341e565b604082019050919050565b600060208201905081810360008301526134a98161346d565b9050919050565b7f4552433732313a2063616c6c6572206973206e6f7420746f6b656e206f776e6560008201527f72206f7220617070726f76656400000000000000000000000000000000000000602082015250565b600061350c602d83612b97565b9150613517826134b0565b604082019050919050565b6000602082019050818103600083015261353b816134ff565b9050919050565b7f4e487b7100000000000000000000000000000000000000000000000000000000600052601160045260246000fd5b600061357c82612c3e565b915061358783612c3e565b925082820190508082111561359f5761359e613542565b5b92915050565b60006135b082612c3e565b91507fffffffffffffffffffffffffffffffffffffffffffffffffffffffffffffffff82036135e2576135e1613542565b5b600182019050919050565b7f4e487b7100000000000000000000000000000000000000000000000000000000600052603260045260246000fd5b7f4552433732313a20696e76616c696420746f6b656e2049440000000000000000600082015250565b6000613652601883612b97565b915061365d8261361c565b602082019050919050565b6000602082019050818103600083015261368181613645565b9050919050565b7f4552433732313a2061646472657373207a65726f206973206e6f74206120766160008201527f6c6964206f776e65720000000000000000000000000000000000000000000000602082015250565b60006136e4602983612b97565b91506136ef82613688565b604082019050919050565b60006020820190508181036000830152613713816136d7565b9050919050565b7f4f6e6c79206974656d206f776e65722063616e20706572666f726d207468697360008201527f206f7065726174696f6e00000000000000000000000000000000000000000000602082015250565b6000613776602a83612b97565b91506137818261371a565b604082019050919050565b600060208201905081810360008301526137a581613769565b9050919050565b7f5072696365206d75737420626520657175616c6c20746f206c697374696e672060008201527f7072696365000000000000000000000000000000000000000000000000000000602082015250565b6000613808602583612b97565b9150613813826137ac565b604082019050919050565b60006020820190508181036000830152613837816137fb565b9050919050565b600061384982612c3e565b915061385483612c3e565b925082820390508181111561386c5761386b613542565b5b92915050565b7f506c65617365207375626d6974207468652061736b696e67207072696365206960008201527f6e206f7264657220746f20636f6d706c65746520746865207075726368617365602082015250565b60006138ce604083612b97565b91506138d982613872565b604082019050919050565b600060208201905081810360008301526138fd816138c1565b9050919050565b600081905092915050565b600061391a82612b8c565b6139248185613904565b9350613934818560208601612ba8565b80840191505092915050565b600061394c828561390f565b9150613958828461390f565b91508190509392505050565b7f6f6e6c79206f776e6572206f6620746865206d61726b6574706c61636520636160008201527f6e206368616e676520746865206c697374696e67207072696365000000000000602082015250565b60006139c0603a83612b97565b91506139cb82613964565b604082019050919050565b600060208201905081810360008301526139ef816139b3565b9050919050565b7f4552433732313a207472616e736665722066726f6d20696e636f72726563742060008201527f6f776e6572000000000000000000000000000000000000000000000000000000602082015250565b6000613a52602583612b97565b9150613a5d826139f6565b604082019050919050565b60006020820190508181036000830152613a8181613a45565b9050919050565b7f4552433732313a207472616e7366657220746f20746865207a65726f2061646460008201527f7265737300000000000000000000000000000000000000000000000000000000602082015250565b6000613ae4602483612b97565b9150613aef82613a88565b604082019050919050565b60006020820190508181036000830152613b1381613ad7565b9050919050565b7f4552433732313a206d696e7420746f20746865207a65726f2061646472657373600082015250565b6000613b50602083612b97565b9150613b5b82613b1a565b602082019050919050565b60006020820190508181036000830152613b7f81613b43565b9050919050565b7f4552433732313a20746f6b656e20616c7265616479206d696e74656400000000600082015250565b6000613bbc601c83612b97565b9150613bc782613b86565b602082019050919050565b60006020820190508181036000830152613beb81613baf565b9050919050565b7f45524337323155524953746f726167653a2055524920736574206f66206e6f6e60008201527f6578697374656e7420746f6b656e000000000000000000000000000000000000602082015250565b6000613c4e602e83612b97565b9150613c5982613bf2565b604082019050919050565b60006020820190508181036000830152613c7d81613c41565b9050919050565b60008190508160005260206000209050919050565b60006020601f8301049050919050565b600082821b905092915050565b600060088302613ce67fffffffffffffffffffffffffffffffffffffffffffffffffffffffffffffffff82613ca9565b613cf08683613ca9565b95508019841693508086168417925050509392505050565b6000819050919050565b6000613d2d613d28613d2384612c3e565b613d08565b612c3e565b9050919050565b6000819050919050565b613d4783613d12565b613d5b613d5382613d34565b848454613cb6565b825550505050565b600090565b613d70613d63565b613d7b818484613d3e565b505050565b5b81811015613d9f57613d94600082613d68565b600181019050613d81565b5050565b601f821115613de457613db581613c84565b613dbe84613c99565b81016020851015613dcd578190505b613de1613dd985613c99565b830182613d80565b50505b505050565b600082821c905092915050565b6000613e0760001984600802613de9565b1980831691505092915050565b6000613e208383613df6565b9150826002028217905092915050565b613e3982612b8c565b67ffffffffffffffff811115613e5257613e51612f95565b5b613e5c825461335b565b613e67828285613da3565b600060209050601f831160018114613e9a5760008415613e88578287015190505b613e928582613e14565b865550613efa565b601f198416613ea886613c84565b60005b82811015613ed057848901518255600182019150602085019450602081019050613eab565b86831015613eed5784890151613ee9601f891682613df6565b8355505b6001600288020188555050505b505050505050565b7f5072696365206d7573742062652061746c656173742031000000000000000000600082015250565b6000613f38601783612b97565b9150613f4382613f02565b602082019050919050565b60006020820190508181036000830152613f6781613f2b565b9050919050565b613f7781612e21565b82525050565b6000608082019050613f926000830187613f6e565b613f9f6020830186613f6e565b613fac6040830185612d69565b613fb96060830184612b62565b95945050505050565b7f4552433732313a20617070726f766520746f2063616c6c657200000000000000600082015250565b6000613ff8601983612b97565b915061400382613fc2565b602082019050919050565b6000602082019050818103600083015261402781613feb565b9050919050565b7f4552433732313a207472616e7366657220746f206e6f6e20455243373231526560008201527f63656976657220696d706c656d656e7465720000000000000000000000000000602082015250565b600061408a603283612b97565b91506140958261402e565b604082019050919050565b600060208201905081810360008301526140b98161407d565b9050919050565b600081519050919050565b600082825260208201905092915050565b60006140e7826140c0565b6140f181856140cb565b9350614101818560208601612ba8565b61410a81612bd2565b840191505092915050565b600060808201905061412a6000830187612cd3565b6141376020830186612cd3565b6141446040830185612d69565b818103606083015261415681846140dc565b905095945050505050565b60008151905061417081612afd565b92915050565b60006020828403121561418c5761418b612ac7565b5b600061419a84828501614161565b91505092915050565b7f4e487b7100000000000000000000000000000000000000000000000000000000600052601260045260246000fdfea264697066735822122048d7de3dcddf094aa41a60c0ee85ce20bf6b1f1cc58f3132b31da5ce4d6c7d9264736f6c63430008110033",
  "linkReferences": {},
  "deployedLinkReferences": {}
}